:1000000012C019C018C017C016C015C014C013C044
:1000100012C011C010C00FC00EC00DC00CC00BC06C
:100020000AC009C008C011241FBECFE5D4E0DEBF5E
:10003000CDBF12D067C0E4CF3E9A86B1876886B93B
:10004000089597B18770987F982B97B9369A36990B
:10005000FECF84B195B1089526D03AD0EDDF48D0D7
:100060002FE78AE196E0215080409040E1F700C000
:10007000000080E0E6DFEC0181E0E3DF8C0182E05C
:10008000E0DFCF3521E0D20710F037D0F2CFCD340A
:10009000D14010F42FD0EDCF0D34114010F430D0FA
:1000A000E8CF26D0E6CFB99ABA9A8FEF9FE49BBDEE
:1000B0008ABD99BD88BD8FB5806A8FBD8FB58360BD
:1000C0008FBD8EB583608EBD8EB582608EBD089566
:1000D00081B3856381BB82B3846282BB909894981C
:1000E000089582B3846282BB08959298959808958A
:1000F000FCDF0895929A95980895959A929808959C
:08010000F0DF0895F894FFCF31
:00000001FF
